:02000000402995
:10000800FF00030E8301C1000A08C2008A017008BC
:10001800A3007B08A2007C08A1007D08A000063090
:10002800FB001330FC00AD30FD00FD0B1928FC0B64
:100038001928FB0B1928000000008B1C8828061CB7
:1000480026288B10861C8728881408160810081183
:1000580088118812303087000B30FB002630FC00F6
:100068005D30FD00FD0B3628FC0B3628FB0B3628CF
:1000780000000000203087000B30FB002630FC0019
:100088005D30FD00FD0B4628FC0B4628FB0B46287F
:1000980000000000103087000B30FB002630FC0009
:1000A8005D30FD00FD0B5628FC0B5628FB0B56282F
:1000B8000000000087010B30FB002630FC005D309B
:1000C800FD00FD0B6528FC0B6528FB0B652800006F
:1000D80000003B1871280810722808143B1876286D
:1000E8008812772888163B09F00070187D280811B7
:1000F8007E2808157018822888118328881588108A
:1001080008127008BB0021282308F0002208FB0011
:100118002108FC002008FD0042088A00410E8300E7
:06012800FF0E7F0E09002E
:10012E0083120313F8010830FC00700DF80D7408EB
:10013E00F8020318A428F8070310F00DFC0B9C28F6
:02014E000800A7
:100150000A3083120313F4004308F0009720780854
:10016000F0007008C4004408BF000A30F4004308DF
:10017000F00097207008C0004408F100F10D7110E4
:10018000F10D7110F10D7110F10D71100F30F005BE
:080190007008710487000800EB
:0E019800831203133E088A003D08820008000F
:1001A60083120313BC010F303C02031807290830E1
:1001B6003C07F000F1010318F10A7008243E8400A0
:1001C6000008C300A8200B303C020318F1280814CD
:1001D60088100811881108128816F7280814881044
:1001E60008118811081688120B30FB002630FC0017
:1001F6005D30FD00FD0BFD28FC0BFD28FB0BFD28EB
:1002060000000000BC0AD628BC0117303C020318C7
:1002160033293C08243E84000008C300A82013307C
:100226003C0203181D2908108810081588150812A5
:1002360088122329081088140811881508128812B4
:100246000B30FB002630FC005D30FD00FD0B29293C
:10025600FC0B2929FB0B292900000000BC0A0829F0
:0202660008008E
:10026800CC208A110A128000840ABD0A0319BE0A2A
:08027800F003031D3429080006
:10028000173083120313A4001630A5001530A60002
:100290001430A7001330A8001230A9001130AA00B2
:1002A0001030AB000F30AC000E30AD000D30AE00A2
:1002B0000C30AF000A30B0000930B1000830B20095
:1002C0000730B3000630B4000530B5000430B60086
:1002D0000330B7000230B8000130B900BA01013074
:1002E000BB000B168B17831601178117880103308B
:1002F0008600870183120616861606178617D320F6
:040300007F298129A7
:02400E004A2F37
:00000001FF
